{
  "_format": "hh-sol-artifact-1",
  "contractName": "AmazonCoin",
  "sourceName": "contracts/AmazonCoin.sol",
  "abi": [
    {
      "inputs": [],
      "stateMutability": "nonpayable",
      "type": "constructor"
    },
    {
      "anonymous": false,
      "inputs": [
        {
          "indexed": true,
          "internalType": "address",
          "name": "owner",
          "type": "address"
        },
        {
          "indexed": true,
          "internalType": "address",
          "name": "spender",
          "type": "address"
        },
        {
          "indexed": false,
          "internalType": "uint256",
          "name": "value",
          "type": "uint256"
        }
      ],
      "name": "Approval",
      "type": "event"
    },
    {
      "anonymous": false,
      "inputs": [
        {
          "indexed": true,
          "internalType": "address",
          "name": "previousOwner",
          "type": "address"
        },
        {
          "indexed": true,
          "internalType": "address",
          "name": "newOwner",
          "type": "address"
        }
      ],
      "name": "OwnershipTransferred",
      "type": "event"
    },
    {
      "anonymous": false,
      "inputs": [
        {
          "indexed": true,
          "internalType": "address",
          "name": "from",
          "type": "address"
        },
        {
          "indexed": true,
          "internalType": "address",
          "name": "to",
          "type": "address"
        },
        {
          "indexed": false,
          "internalType": "uint256",
          "name": "value",
          "type": "uint256"
        }
      ],
      "name": "Transfer",
      "type": "event"
    },
    {
      "stateMutability": "payable",
      "type": "fallback"
    },
    {
      "inputs": [
        {
          "internalType": "address",
          "name": "owner",
          "type": "address"
        },
        {
          "internalType": "address",
          "name": "spender",
          "type": "address"
        }
      ],
      "name": "allowance",
      "outputs": [
        {
          "internalType": "uint256",
          "name": "",
          "type": "uint256"
        }
      ],
      "stateMutability": "view",
      "type": "function"
    },
    {
      "inputs": [
        {
          "internalType": "address",
          "name": "spender",
          "type": "address"
        },
        {
          "internalType": "uint256",
          "name": "amount",
          "type": "uint256"
        }
      ],
      "name": "approve",
      "outputs": [
        {
          "internalType": "bool",
          "name": "",
          "type": "bool"
        }
      ],
      "stateMutability": "nonpayable",
      "type": "function"
    },
    {
      "inputs": [
        {
          "internalType": "address",
          "name": "account",
          "type": "address"
        }
      ],
      "name": "balanceOf",
      "outputs": [
        {
          "internalType": "uint256",
          "name": "",
          "type": "uint256"
        }
      ],
      "stateMutability": "view",
      "type": "function"
    },
    {
      "inputs": [
        {
          "internalType": "uint256",
          "name": "amount",
          "type": "uint256"
        }
      ],
      "name": "burn",
      "outputs": [],
      "stateMutability": "nonpayable",
      "type": "function"
    },
    {
      "inputs": [
        {
          "internalType": "address",
          "name": "account",
          "type": "address"
        },
        {
          "internalType": "uint256",
          "name": "amount",
          "type": "uint256"
        }
      ],
      "name": "burnFrom",
      "outputs": [],
      "stateMutability": "nonpayable",
      "type": "function"
    },
    {
      "inputs": [],
      "name": "decimals",
      "outputs": [
        {
          "internalType": "uint8",
          "name": "",
          "type": "uint8"
        }
      ],
      "stateMutability": "view",
      "type": "function"
    },
    {
      "inputs": [
        {
          "internalType": "address",
          "name": "spender",
          "type": "address"
        },
        {
          "internalType": "uint256",
          "name": "subtractedValue",
          "type": "uint256"
        }
      ],
      "name": "decreaseAllowance",
      "outputs": [
        {
          "internalType": "bool",
          "name": "",
          "type": "bool"
        }
      ],
      "stateMutability": "nonpayable",
      "type": "function"
    },
    {
      "inputs": [
        {
          "internalType": "address",
          "name": "spender",
          "type": "address"
        },
        {
          "internalType": "uint256",
          "name": "addedValue",
          "type": "uint256"
        }
      ],
      "name": "increaseAllowance",
      "outputs": [
        {
          "internalType": "bool",
          "name": "",
          "type": "bool"
        }
      ],
      "stateMutability": "nonpayable",
      "type": "function"
    },
    {
      "inputs": [
        {
          "internalType": "uint256",
          "name": "amount",
          "type": "uint256"
        }
      ],
      "name": "mint",
      "outputs": [],
      "stateMutability": "payable",
      "type": "function"
    },
    {
      "inputs": [],
      "name": "name",
      "outputs": [
        {
          "internalType": "string",
          "name": "",
          "type": "string"
        }
      ],
      "stateMutability": "view",
      "type": "function"
    },
    {
      "inputs": [],
      "name": "owner",
      "outputs": [
        {
          "internalType": "address",
          "name": "",
          "type": "address"
        }
      ],
      "stateMutability": "view",
      "type": "function"
    },
    {
      "inputs": [],
      "name": "renounceOwnership",
      "outputs": [],
      "stateMutability": "nonpayable",
      "type": "function"
    },
    {
      "inputs": [],
      "name": "symbol",
      "outputs": [
        {
          "internalType": "string",
          "name": "",
          "type": "string"
        }
      ],
      "stateMutability": "view",
      "type": "function"
    },
    {
      "inputs": [],
      "name": "totalSupply",
      "outputs": [
        {
          "internalType": "uint256",
          "name": "",
          "type": "uint256"
        }
      ],
      "stateMutability": "view",
      "type": "function"
    },
    {
      "inputs": [
        {
          "internalType": "address",
          "name": "to",
          "type": "address"
        },
        {
          "internalType": "uint256",
          "name": "amount",
          "type": "uint256"
        }
      ],
      "name": "transfer",
      "outputs": [
        {
          "internalType": "bool",
          "name": "",
          "type": "bool"
        }
      ],
      "stateMutability": "nonpayable",
      "type": "function"
    },
    {
      "inputs": [
        {
          "internalType": "address",
          "name": "from",
          "type": "address"
        },
        {
          "internalType": "address",
          "name": "to",
          "type": "address"
        },
        {
          "internalType": "uint256",
          "name": "amount",
          "type": "uint256"
        }
      ],
      "name": "transferFrom",
      "outputs": [
        {
          "internalType": "bool",
          "name": "",
          "type": "bool"
        }
      ],
      "stateMutability": "nonpayable",
      "type": "function"
    },
    {
      "inputs": [
        {
          "internalType": "address",
          "name": "newOwner",
          "type": "address"
        }
      ],
      "name": "transferOwnership",
      "outputs": [],
      "stateMutability": "nonpayable",
      "type": "function"
    },
    {
      "stateMutability": "payable",
      "type": "receive"
    }
  ],
  "bytecode": "0x60806040523480156200001157600080fd5b506040518060400160405280600a81526020017f416d617a6f6e436f696e000000000000000000000000000000000000000000008152506040518060400160405280600281526020017f4143000000000000000000000000000000000000000000000000000000000000815250816003908051906020019062000096929190620001a6565b508060049080519060200190620000af929190620001a6565b505050620000d2620000c6620000d860201b60201c565b620000e060201b60201c565b620002bb565b600033905090565b6000600560009054906101000a900473ffffffffffffffffffffffffffffffffffffffff16905081600560006101000a81548173ffffffffffffffffffffffffffffffffffffffff021916908373ffffffffffffffffffffffffffffffffffffffff1602179055508173ffffffffffffffffffffffffffffffffffffffff168173ffffffffffffffffffffffffffffffffffffffff167f8be0079c531659141344cd1fd0a4f28419497f9722a3daafe3b4186f6b6457e060405160405180910390a35050565b828054620001b49062000256565b90600052602060002090601f016020900481019282620001d8576000855562000224565b82601f10620001f357805160ff191683800117855562000224565b8280016001018555821562000224579182015b828111156200022357825182559160200191906001019062000206565b5b50905062000233919062000237565b5090565b5b808211156200025257600081600090555060010162000238565b5090565b600060028204905060018216806200026f57607f821691505b602082108114156200028657620002856200028c565b5b50919050565b7f4e487b7100000000000000000000000000000000000000000000000000000000600052602260045260246000fd5b611e2e80620002cb6000396000f3fe6080604052600436106101025760003560e01c8063715018a611610095578063a0712d6811610064578063a0712d681461033f578063a457c2d71461035b578063a9059cbb14610398578063dd62ed3e146103d5578063f2fde38b1461041257610109565b8063715018a6146102a957806379cc6790146102c05780638da5cb5b146102e957806395d89b411461031457610109565b8063313ce567116100d1578063313ce567146101db578063395093511461020657806342966c681461024357806370a082311461026c57610109565b806306fdde031461010b578063095ea7b31461013657806318160ddd1461017357806323b872dd1461019e57610109565b3661010957005b005b34801561011757600080fd5b5061012061043b565b60405161012d919061163e565b60405180910390f35b34801561014257600080fd5b5061015d60048036038101906101589190611367565b6104cd565b60405161016a9190611623565b60405180910390f35b34801561017f57600080fd5b506101886104f0565b6040516101959190611800565b60405180910390f35b3480156101aa57600080fd5b506101c560048036038101906101c09190611318565b6104fa565b6040516101d29190611623565b60405180910390f35b3480156101e757600080fd5b506101f0610529565b6040516101fd919061181b565b60405180910390f35b34801561021257600080fd5b5061022d60048036038101906102289190611367565b610532565b60405161023a9190611623565b60405180910390f35b34801561024f57600080fd5b5061026a600480360381019061026591906113a3565b610569565b005b34801561027857600080fd5b50610293600480360381019061028e91906112b3565b61057d565b6040516102a09190611800565b60405180910390f35b3480156102b557600080fd5b506102be6105c5565b005b3480156102cc57600080fd5b506102e760048036038101906102e29190611367565b61064d565b005b3480156102f557600080fd5b506102fe61066d565b60405161030b9190611608565b60405180910390f35b34801561032057600080fd5b50610329610697565b604051610336919061163e565b60405180910390f35b610359600480360381019061035491906113a3565b610729565b005b34801561036757600080fd5b50610382600480360381019061037d9190611367565b610789565b60405161038f9190611623565b60405180910390f35b3480156103a457600080fd5b506103bf60048036038101906103ba9190611367565b610800565b6040516103cc9190611623565b60405180910390f35b3480156103e157600080fd5b506103fc60048036038101906103f791906112dc565b610823565b6040516104099190611800565b60405180910390f35b34801561041e57600080fd5b50610439600480360381019061043491906112b3565b6108aa565b005b60606003805461044a906119be565b80601f0160208091040260200160405190810160405280929190818152602001828054610476906119be565b80156104c35780601f10610498576101008083540402835291602001916104c3565b820191906000526020600020905b8154815290600101906020018083116104a657829003601f168201915b5050505050905090565b6000806104d86109a2565b90506104e58185856109aa565b600191505092915050565b6000600254905090565b6000806105056109a2565b9050610512858285610b75565b61051d858585610c01565b60019150509392505050565b60006012905090565b60008061053d6109a2565b905061055e81858561054f8589610823565b6105599190611852565b6109aa565b600191505092915050565b61057a6105746109a2565b82610e82565b50565b60008060008373ffffffffffffffffffffffffffffffffffffffff1673ffffffffffffffffffffffffffffffffffffffff168152602001908152602001600020549050919050565b6105cd6109a2565b73ffffffffffffffffffffffffffffffffffffffff166105eb61066d565b73ffffffffffffffffffffffffffffffffffffffff1614610641576040517f08c379a000000000000000000000000000000000000000000000000000000000815260040161063890611740565b60405180910390fd5b61064b6000611059565b565b61065f826106596109a2565b83610b75565b6106698282610e82565b5050565b6000600560009054906101000a900473ffffffffffffffffffffffffffffffffffffffff16905090565b6060600480546106a6906119be565b80601f01602080910402602001604051908101604052809291908181526020018280546106d2906119be565b801561071f5780601f106106f45761010080835404028352916020019161071f565b820191906000526020600020905b81548152906001019060200180831161070257829003601f168201915b5050505050905090565b655af3107a40008161073b91906118a8565b341461077c576040517f08c379a000000000000000000000000000000000000000000000000000000000815260040161077390611660565b60405180910390fd5b610786338261111f565b50565b6000806107946109a2565b905060006107a28286610823565b9050838110156107e7576040517f08c379a00000000000000000000000000000000000000000000000000000000081526004016107de906117c0565b60405180910390fd5b6107f482868684036109aa565b60019250505092915050565b60008061080b6109a2565b9050610818818585610c01565b600191505092915050565b6000600160008473ffffffffffffffffffffffffffffffffffffffff1673ffffffffffffffffffffffffffffffffffffffff16815260200190815260200160002060008373ffffffffffffffffffffffffffffffffffffffff1673ffffffffffffffffffffffffffffffffffffffff16815260200190815260200160002054905092915050565b6108b26109a2565b73ffffffffffffffffffffffffffffffffffffffff166108d061066d565b73ffffffffffffffffffffffffffffffffffffffff1614610926576040517f08c379a000000000000000000000000000000000000000000000000000000000815260040161091d90611740565b60405180910390fd5b600073ffffffffffffffffffffffffffffffffffffffff168173ffffffffffffffffffffffffffffffffffffffff161415610996576040517f08c379a000000000000000000000000000000000000000000000000000000000815260040161098d906116c0565b60405180910390fd5b61099f81611059565b50565b600033905090565b600073ffffffffffffffffffffffffffffffffffffffff168373ffffffffffffffffffffffffffffffffffffffff161415610a1a576040517f08c379a0000000000000000000000000000000000000000000000000000000008152600401610a11906117a0565b60405180910390fd5b600073ffffffffffffffffffffffffffffffffffffffff168273ffffffffffffffffffffffffffffffffffffffff161415610a8a576040517f08c379a0000000000000000000000000000000000000000000000000000000008152600401610a81906116e0565b60405180910390fd5b80600160008573ffffffffffffffffffffffffffffffffffffffff1673ffffffffffffffffffffffffffffffffffffffff16815260200190815260200160002060008473ffffffffffffffffffffffffffffffffffffffff1673ffffffffffffffffffffffffffffffffffffffff168152602001908152602001600020819055508173ffffffffffffffffffffffffffffffffffffffff168373ffffffffffffffffffffffffffffffffffffffff167f8c5be1e5ebec7d5bd14f71427d1e84f3dd0314c0f7b2291e5b200ac8c7c3b92583604051610b689190611800565b60405180910390a3505050565b6000610b818484610823565b90507fffffffffffffffffffffffffffffffffffffffffffffffffffffffffffffffff8114610bfb5781811015610bed576040517f08c379a0000000000000000000000000000000000000000000000000000000008152600401610be490611700565b60405180910390fd5b610bfa84848484036109aa565b5b50505050565b600073ffffffffffffffffffffffffffffffffffffffff168373ffffffffffffffffffffffffffffffffffffffff161415610c71576040517f08c379a0000000000000000000000000000000000000000000000000000000008152600401610c6890611780565b60405180910390fd5b600073ffffffffffffffffffffffffffffffffffffffff168273ffffffffffffffffffffffffffffffffffffffff161415610ce1576040517f08c379a0000000000000000000000000000000000000000000000000000000008152600401610cd890611680565b60405180910390fd5b610cec83838361127f565b60008060008573ffffffffffffffffffffffffffffffffffffffff1673ffffffffffffffffffffffffffffffffffffffff16815260200190815260200160002054905081811015610d72576040517f08c379a0000000000000000000000000000000000000000000000000000000008152600401610d6990611720565b60405180910390fd5b8181036000808673ffffffffffffffffffffffffffffffffffffffff1673ffffffffffffffffffffffffffffffffffffffff16815260200190815260200160002081905550816000808573ffffffffffffffffffffffffffffffffffffffff1673ffffffffffffffffffffffffffffffffffffffff1681526020019081526020016000206000828254610e059190611852565b925050819055508273ffffffffffffffffffffffffffffffffffffffff168473ffffffffffffffffffffffffffffffffffffffff167fddf252ad1be2c89b69c2b068fc378daa952ba7f163c4a11628f55a4df523b3ef84604051610e699190611800565b60405180910390a3610e7c848484611284565b50505050565b600073ffffffffffffffffffffffffffffffffffffffff168273ffffffffffffffffffffffffffffffffffffffff161415610ef2576040517f08c379a0000000000000000000000000000000000000000000000000000000008152600401610ee990611760565b60405180910390fd5b610efe8260008361127f565b60008060008473ffffffffffffffffffffffffffffffffffffffff1673ffffffffffffffffffffffffffffffffffffffff16815260200190815260200160002054905081811015610f84576040517f08c379a0000000000000000000000000000000000000000000000000000000008152600401610f7b906116a0565b60405180910390fd5b8181036000808573ffffffffffffffffffffffffffffffffffffffff1673ffffffffffffffffffffffffffffffffffffffff168152602001908152602001600020819055508160026000828254610fdb9190611902565b92505081905550600073ffffffffffffffffffffffffffffffffffffffff168373ffffffffffffffffffffffffffffffffffffffff167fddf252ad1be2c89b69c2b068fc378daa952ba7f163c4a11628f55a4df523b3ef846040516110409190611800565b60405180910390a361105483600084611284565b505050565b6000600560009054906101000a900473ffffffffffffffffffffffffffffffffffffffff16905081600560006101000a81548173ffffffffffffffffffffffffffffffffffffffff021916908373ffffffffffffffffffffffffffffffffffffffff1602179055508173ffffffffffffffffffffffffffffffffffffffff168173ffffffffffffffffffffffffffffffffffffffff167f8be0079c531659141344cd1fd0a4f28419497f9722a3daafe3b4186f6b6457e060405160405180910390a35050565b600073ffffffffffffffffffffffffffffffffffffffff168273ffffffffffffffffffffffffffffffffffffffff16141561118f576040517f08c379a0000000000000000000000000000000000000000000000000000000008152600401611186906117e0565b60405180910390fd5b61119b6000838361127f565b80600260008282546111ad9190611852565b92505081905550806000808473ffffffffffffffffffffffffffffffffffffffff1673ffffffffffffffffffffffffffffffffffffffff16815260200190815260200160002060008282546112029190611852565b925050819055508173ffffffffffffffffffffffffffffffffffffffff16600073ffffffffffffffffffffffffffffffffffffffff167fddf252ad1be2c89b69c2b068fc378daa952ba7f163c4a11628f55a4df523b3ef836040516112679190611800565b60405180910390a361127b60008383611284565b5050565b505050565b505050565b60008135905061129881611dca565b92915050565b6000813590506112ad81611de1565b92915050565b6000602082840312156112c557600080fd5b60006112d384828501611289565b91505092915050565b600080604083850312156112ef57600080fd5b60006112fd85828601611289565b925050602061130e85828601611289565b9150509250929050565b60008060006060848603121561132d57600080fd5b600061133b86828701611289565b935050602061134c86828701611289565b925050604061135d8682870161129e565b9150509250925092565b6000806040838503121561137a57600080fd5b600061138885828601611289565b92505060206113998582860161129e565b9150509250929050565b6000602082840312156113b557600080fd5b60006113c38482850161129e565b91505092915050565b6113d581611936565b82525050565b6113e481611948565b82525050565b60006113f582611836565b6113ff8185611841565b935061140f81856020860161198b565b61141881611a4e565b840191505092915050565b6000611430601783611841565b915061143b82611a5f565b602082019050919050565b6000611453602383611841565b915061145e82611a88565b604082019050919050565b6000611476602283611841565b915061148182611ad7565b604082019050919050565b6000611499602683611841565b91506114a482611b26565b604082019050919050565b60006114bc602283611841565b91506114c782611b75565b604082019050919050565b60006114df601d83611841565b91506114ea82611bc4565b602082019050919050565b6000611502602683611841565b915061150d82611bed565b604082019050919050565b6000611525602083611841565b915061153082611c3c565b602082019050919050565b6000611548602183611841565b915061155382611c65565b604082019050919050565b600061156b602583611841565b915061157682611cb4565b604082019050919050565b600061158e602483611841565b915061159982611d03565b604082019050919050565b60006115b1602583611841565b91506115bc82611d52565b604082019050919050565b60006115d4601f83611841565b91506115df82611da1565b602082019050919050565b6115f381611974565b82525050565b6116028161197e565b82525050565b600060208201905061161d60008301846113cc565b92915050565b600060208201905061163860008301846113db565b92915050565b6000602082019050818103600083015261165881846113ea565b905092915050565b6000602082019050818103600083015261167981611423565b9050919050565b6000602082019050818103600083015261169981611446565b9050919050565b600060208201905081810360008301526116b981611469565b9050919050565b600060208201905081810360008301526116d98161148c565b9050919050565b600060208201905081810360008301526116f9816114af565b9050919050565b60006020820190508181036000830152611719816114d2565b9050919050565b60006020820190508181036000830152611739816114f5565b9050919050565b6000602082019050818103600083015261175981611518565b9050919050565b600060208201905081810360008301526117798161153b565b9050919050565b600060208201905081810360008301526117998161155e565b9050919050565b600060208201905081810360008301526117b981611581565b9050919050565b600060208201905081810360008301526117d9816115a4565b9050919050565b600060208201905081810360008301526117f9816115c7565b9050919050565b600060208201905061181560008301846115ea565b92915050565b600060208201905061183060008301846115f9565b92915050565b600081519050919050565b600082825260208201905092915050565b600061185d82611974565b915061186883611974565b9250827fffffffffffffffffffffffffffffffffffffffffffffffffffffffffffffffff0382111561189d5761189c6119f0565b5b828201905092915050565b60006118b382611974565b91506118be83611974565b9250817fffffffffffffffffffffffffffffffffffffffffffffffffffffffffffffffff04831182151516156118f7576118f66119f0565b5b828202905092915050565b600061190d82611974565b915061191883611974565b92508282101561192b5761192a6119f0565b5b828203905092915050565b600061194182611954565b9050919050565b60008115159050919050565b600073ffffffffffffffffffffffffffffffffffffffff82169050919050565b6000819050919050565b600060ff82169050919050565b60005b838110156119a957808201518184015260208101905061198e565b838111156119b8576000848401525b50505050565b600060028204905060018216806119d657607f821691505b602082108114156119ea576119e9611a1f565b5b50919050565b7f4e487b7100000000000000000000000000000000000000000000000000000000600052601160045260246000fd5b7f4e487b7100000000000000000000000000000000000000000000000000000000600052602260045260246000fd5b6000601f19601f8301169050919050565b7f696e76616c696420616d6f756e74206f66206574686572000000000000000000600082015250565b7f45524332303a207472616e7366657220746f20746865207a65726f206164647260008201527f6573730000000000000000000000000000000000000000000000000000000000602082015250565b7f45524332303a206275726e20616d6f756e7420657863656564732062616c616e60008201527f6365000000000000000000000000000000000000000000000000000000000000602082015250565b7f4f776e61626c653a206e6577206f776e657220697320746865207a65726f206160008201527f6464726573730000000000000000000000000000000000000000000000000000602082015250565b7f45524332303a20617070726f766520746f20746865207a65726f20616464726560008201527f7373000000000000000000000000000000000000000000000000000000000000602082015250565b7f45524332303a20696e73756666696369656e7420616c6c6f77616e6365000000600082015250565b7f45524332303a207472616e7366657220616d6f756e742065786365656473206260008201527f616c616e63650000000000000000000000000000000000000000000000000000602082015250565b7f4f776e61626c653a2063616c6c6572206973206e6f7420746865206f776e6572600082015250565b7f45524332303a206275726e2066726f6d20746865207a65726f2061646472657360008201527f7300000000000000000000000000000000000000000000000000000000000000602082015250565b7f45524332303a207472616e736665722066726f6d20746865207a65726f20616460008201527f6472657373000000000000000000000000000000000000000000000000000000602082015250565b7f45524332303a20617070726f76652066726f6d20746865207a65726f2061646460008201527f7265737300000000000000000000000000000000000000000000000000000000602082015250565b7f45524332303a2064656372656173656420616c6c6f77616e63652062656c6f7760008201527f207a65726f000000000000000000000000000000000000000000000000000000602082015250565b7f45524332303a206d696e7420746f20746865207a65726f206164647265737300600082015250565b611dd381611936565b8114611dde57600080fd5b50565b611dea81611974565b8114611df557600080fd5b5056fea26469706673582212203a0ed8e963e4831a05971427e3bbfda44df219417e3198124f9d2a48600e834364736f6c63430008040033",
  "linkReferences": {},
  "deployedLinkReferences": {}
}